:020000040800F2
:1000000080290020ED010008C508000861070008EC
:10001000C1080008070400081513000800000000CC
:10002000000000000000000000000000C30C0008F9
:100030003F04000800000000030200080502000859
:10004000070200080702000807020008070200086C
:10005000070200080702000807020008070200085C
:10006000070200080702000807020008070200084C
:10007000070200080702000807020008070200083C
:10008000070200080702000807020008070200082C
:10009000070200080702000807020008070200081C
:1000A000070200080702000807020008070200080C
:1000B00007020008070200080702000807020008FC
:1000C00007020008070200080702000807020008EC
:1000D00007020008070200080702000807020008DC
:1000E00007020008070200080702000807020008CC
:1000F00007020008070200080702000807020008BC
:1001000007020008070200080702000807020008AB
:10011000070200080702000807020008070200089B
:10012000070200080702000807020008070200088B
:1001300000F002F800F03AF80AA090E8000C8244BF
:100140008344AAF10107DA4501D100F02FF8AFF29C
:10015000090EBAE80F0013F0010F18BFFB1A43F0A5
:1001600001031847B8170000D8170000103A24BF41
:1001700078C878C1FAD8520724BF30C830C144BF0C
:1001800004680C607047000000230024002500264E
:10019000103A28BF78C1FBD8520728BF30C148BFEA
:1001A0000B6070471FB51FBD10B510BD00F0F1F812
:1001B0001146FFF7F7FF01F095F900F00FF903B4CE
:1001C000FFF7F2FF03BC00F017F90000EFF309801E
:1001D000704780F309887047EFF30880704780F319
:1001E0000888704740BA7047C0BA704709488047CE
:1001F00009480047FEE7FEE7FEE7FEE7FEE7FEE709
:10020000FEE7FEE7FEE7FEE704480549054A064B20
:1002100070470000651100083101000880050020CA
:1002200080290020800900208009002030B5054683
:100230000B462A4613F8014B12F8010B08B1A042F5
:10024000F8D01CB1002802D06D1CF1E7284630BD63
:10025000032A40F2308010F0030C00F0158011F8F2
:10026000013BBCF1020F624498BF11F801CB00F8CA
:10027000013B38BF11F8013BA2F1040298BF00F81E
:1002800001CB38BF00F8013B11F0030300F04F80B1
:10029000083AC0F0088051F8043B083A51F804CB02
:1002A000A0E80810F5E7121D5CBF51F8043B40F8C8
:1002B000043BAFF30080D20724BF11F8013B11F8D3
:1002C00001CB48BF11F8012B24BF00F8013B00F817
:1002D00001CB48BF00F8012B70474FF0000200B57A
:1002E000134694469646203922BFA0E80C50A0E859
:1002F0000C50B1F12001BFF4F7AF090728BFA0E807
:100300000C5048BF0CC05DF804EB890028BF40F8D2
:10031000042B08BF704748BF20F8022B11F0804F14
:1003200018BF00F8012B704770477047704710B531
:10033000203AC0F00B80B1E81850203AA0E81850DD
:10034000B1E81850A0E81850BFF4F5AF5FEA027C9E
:1003500024BFB1E81850A0E8185044BF18C918C00D
:10036000BDE810405FEA827C24BF51F8043B40F8AE
:10037000043B08BF7047D20728BF31F8023B48BF93
:1003800011F8012B28BF20F8023B48BF00F8012BD1
:100390007047754600F02CF8AE4605006946534696
:1003A00020F00700854618B020B5FFF72DFFBDE807
:1003B00020404FF000064FF000074FF000084FF0CC
:1003C000000B21F00701AC46ACE8C009ACE8C0095D
:1003D000ACE8C009ACE8C0098D46704710B50446CA
:1003E000AFF300802046BDE81040FFF7E8BE0000F4
:1003F000004870472005002001491820ABBEFEE7E9
:1004000026000200704700BFFEE7F0B505460E4625
:100410000024AF1905E015F8011BA0B200F061FF40
:100420000446BD42F7D3A0B2002100F05AFF0446B3
:100430002046002100F055FF04462046F0BD7047DD
:1004400070B5054600F0E2F82C4609E0204600F0C1
:1004500043F8042802D104F5006401E0002070BDD7
:1004600003488442F2D900F077F80120F7E7000052
:1004700000F807082DE9F04104460E46174600250E
:1004800000F0C4F8252000F021F800BF13E056F872
:100490002510204600F078F8042809D156F82510D8
:1004A0002068884202D00220BDE8F081241D01E0CE
:1004B0000120F9E76D1CBD4202D203488442E6D90F
:1004C00000F04AF80020EFE7FBFF07080149C86089
:1004D000704700000020024030B5044604254FF468
:1004E000302000F09FF80546042D17D10C48006914
:1004F00040F002000A49086108464461006940F082
:10050000400008614FF4302000F08CF805460448A4
:10051000006941F6FD71084001490861284630BD77
:100520000020024004200B49C96801F0010109B113
:1005300001200EE00749C96801F0040109B1022059
:1005400007E00449C96801F0100109B1032000E087
:1005500004207047002002400348006940F08000FA
:100560000149086170470000002002400549096800
:1005700021F01001034A116011460968014311601E
:10058000704700000020024078B506460C4604255E
:1005900000200090E80200F045F80546042D24D123
:1005A0001348006940F00100114908613480E802F5
:1005B00000F038F80546042D10D1B01C0090200C36
:1005C00000990880E80200F02DF805460848006907
:1005D00041F6FE7108400649086106E004480069DA
:1005E00041F6FE71084002490861284678BD0000C6
:1005F0000020024001460020034A106800F0380045
:100600000843106070470000002002400248034980
:100610004860034848607047230167450020024056
:10062000AB89EFCD00B502460423FFF77BFF0346FD
:1006300003E0FFF777FF0346521E012B01D1002A8A
:10064000F7D102B90523184600BD2DE9F041024655
:1006500000250026002000230024002791F803C075
:100660000CF00F0591F803C00CF0100CBCF1000F5A
:1006700003D091F802C04CEA050591F800C0BCF126
:10068000000F31D0146800202BE04FF0010C0CFA61
:1006900000F3B1F800C00CEA03069E4220D18300AB
:1006A0004FF00F0C0CFA03F7BC4305FA03FC4CEABD
:1006B000040491F803C0BCF1280F06D14FF0010CDF
:1006C0000CFA00FCC2F814C00AE091F803C0BCF1B7
:1006D000480F05D14FF0010C0CFA00FCC2F810C015
:1006E000401C0828D1D31460B1F800C0BCF1FF0F42
:1006F00034DD546800202EE000F1080C4FF00108B2
:1007000008FA0CF3B1F800C00CEA03069E4221D1AE
:1007100083004FF00F0C0CFA03F7BC4305FA03FCFF
:100720004CEA040491F803C0BCF1280F05D100F194
:10073000080C08FA0CF8C2F8148091F803C0BCF158
:10074000480F07D100F1080C4FF0010808FA0CF827
:10075000C2F81080401C0828CED35460BDE8F08158
:1007600000BFFEE700B585B00121042000F0ACF821
:100770000121042000F0A8F80121880300F0A4F86A
:100780004FF40070ADF8100001208DF81200182011
:100790008DF8130004A91548FFF757FF4FF4806048
:1007A000ADF8100001208DF8120004208DF8130020
:1007B00004A90E48FFF749FF4FF461400090002064
:1007C000ADF80400ADF80600ADF80800ADF80C0077
:1007D0000C20ADF80A006946054800F00DFD012126
:1007E000034800F0EFFC05B000BD00000008014028
:1007F00000380140F0B5144A00250024002320E011
:10080000B1FBF2F6303606F0FF0C2E466D1C00F8F8
:1008100006C0B1FBF2F602FB16110A26B2FBF6F295
:100820006E1E865D302E01D1012600E000260CB937
:10083000012700E000273E400EB1002500E0641CC7
:100840005B1C0A2BDCD3F0BD00CA9A3B10B5002418
:10085000601E15490860410D13488038C0F88410A7
:1008600040174FF0E021C1F88002410D0F480160B0
:1008700000BF03E000210E480155641C0B2CF9D386
:10088000012080F3108800BF0A4840680A490860C8
:10089000084600680949086006490868FFF79FFC98
:1008A00006480068804710BD80E100E084E200E077
:1008B00000E400E0000001081800002014000020FF
:1008C00000BFFEE77047000029B1064A9269024363
:1008D000044B9A6104E0034A92698243014B9A6196
:1008E000704700000010024010B500F02FF84FF4E0
:1008F000803000F0EDF800F049F90446012C24D1D5
:10090000002000F0D9F8A00200F008F9002000F063
:1009100011F90220FFF76EFE1020FFF727FE4FF4BB
:10092000E011200400F018F9012000F00FF900BFD9
:10093000392000F09BF80028FAD0022000F01AF9C4
:1009400000BF00F0B1F80828FBD110BD0F480068C7
:1009500040F001000D490860084640680C49084015
:100960000A494860084600680A4908400749086083
:100970000846006820F4802008600846406820F49B
:10098000FE0048604FF41F0088607047001002406E
:100990000000FFF8FFFFF6FE30B500210022002422
:1009A00000232D4D6D6805F00C0121B1042905D0FF
:1009B000082923D105E0294D056022E0274D056077
:1009C0001FE0254D6D6805F47012234D6D6805F428
:1009D0008034022505EB92421CB9214D5543056038
:1009E0000BE01D4D6D6805F400351DB11C4D5543E0
:1009F000056002E0194D5543056002E0174D0560A2
:100A000000BF00BF144D6D6805F0F0010909154DD8
:100A10006B5C0568DD4045600F4D6D6805F4E06175
:100A2000090A104D6B5C4568DD4085600A4D6D68B4
:100A300005F46051C90A0B4D6B5C4568DD40C5602B
:100A4000054D6D6805F44041890B074D6B5CC56829
:100A5000B5FBF3F5056130BD0010024000127A00CD
:100A600000093D00000000201000002010B50146E4
:100A70000022002300204A11012A02D1094C2368D8
:100A800006E0022A02D1074C236A01E0054C636AA2
:100A900001F01F02012494401C400CB1012000E031
:100AA000002010BD001002400248406800F00C0019
:100AB000704700000010024001460020034A5068C1
:100AC00020F0F00008435060704700000010024022
:100AD0001149096821F480310F4A116011460968F3
:100AE00021F480211160B0F5803F03D0B0F5802F54
:100AF0000ED106E00849096841F48031064A1160C8
:100B000007E00549096841F4A021034A116000E0AB
:100B100000BF00BF704700000010024001460020E7
:100B2000034A506820F4E0600843506070470000BA
:100B30000010024001460020034A506820F4605033
:100B400040EAC10050607047001002400149086649
:100B5000704700000000424202460020044B5868E3
:100B600020F47C1042EA01031843014B586070479F
:100B70000010024001460020034A506820F00300A4
:100B800008435060704700000010024038B5002054
:100B900000900024002500BF3120FFF767FF0546C5
:100BA0000098401C00900098B0F5A06F01D0002D77
:100BB000F2D03120FFF75AFF08B1012400E00024F1
:100BC000204638BD70B505460C4606E0284600F0C4
:100BD00043F9012801D1002070BD201EA4F10104B9
:100BE000F4D1401EF8E72DE9F84304460E4691463D
:100BF0000020306049466846FFF7E4FF18B14FF027
:100C0000FF30BDE8F8839DF80000182813D006DCFB
:100C1000012809D0022809D0042820D109E0412860
:100C20001AD061281BD118E080251BE04FF48065A5
:100C300018E00020E5E749466846FFF7C3FF40B9E2
:100C40009DF80000182804D14FF0FF3030600020DC
:100C5000D7E74FF0FF30D4E700BF0120D1E74FF0D6
:100C6000FF30CEE700BF9DF800002070012709E0AB
:100C7000E0194946FFF7A6FF10B14FF0FF30C0E77B
:100C8000781C87B2681D8742F2DB6178A07880F01B
:100C9000FF00814202D04FF0FF30B2E72946E01C4E
:100CA000FFF7B3FB8046281D215CE81C205C41EA6D
:100CB0000020404502D04FF0FF30A2E73560002011
:100CC0009FE7704710B50446204600F02FF900203A
:100CD00010BD00003EB5002000900190029000245D
:100CE0001AA000F033F9284800F016FB0446002C47
:100CF00016DD264800F02AF9254800F027F921469C
:100D00006846FFF777FD23A000F020F9684600F061
:100D10001DF923A000F01AF924A000F017F914E03F
:100D2000601C18B927A000F011F90EE0A01C18B93A
:100D300034A000F00BF908E0E01C18B938A000F06E
:100D400005F902E03CA000F001F93EBD576169746D
:100D5000696E6720666F72207468652066696C65CD
:100D600020746F2062652073656E74202E2E2E20F5
:100D70002870726573732027612720746F20616269
:100D80006F7274290A0D000020000020C8180008A6
:100D9000200400200A0D2053697A653A20000000E3
:100DA0002042797465730D0A000000002D2D2D2D51
:100DB0002D2D2D2D2D2D2D2D2D2D2D2D2D2D2D0A86
:100DC000000000000A0A0D54686520696D616765BE
:100DD0002073697A65206973206869676865722085
:100DE0007468616E2074686520616C6C6F776564EF
:100DF000207370616365206D656D6F7279210A0DD6
:100E0000000000000A0A0D56657269666963617424
:100E1000696F6E206661696C6564210A0D000000CF
:100E20000D0A0A41626F72746564206279207573DD
:100E300065722E0A0D0000000A0D4661696C65643A
:100E400020746F207265636569766520746865201B
:100E500066696C65210A0D0010B50446202106481C
:100E600000F0BCF928B1044800F032FA20700120EB
:100E700010BD0020FCE700000038014070B50646B8
:100E80000025002400BF00F03FF804460A2C06D1DC
:100E900028466D1C3454204600F048F81AE0082C0F
:100EA00005D11DB10FA000F051F86D1E11E0802D8D
:100EB00004D30DA000F04AF800250AE0202C07DB3F
:100EC0007E2C05DC28466D1C3454204600F02EF89C
:100ED00000BFD8E700BF0BA000F038F80020705525
:100EE00070BD000008200800436F6D6D616E6420C6
:100EF000737472696E672073697A65206F766572A4
:100F0000666C6F770D0A000010B5002400BF202129
:100F1000054800F063F90028F9D0034800F0D8F93B
:100F2000C4B2204610BD00000038014010B5044690
:100F300000BF4021044800F051F90028F9D02146B3
:100F4000014800F0CAF910BD0038014010B5044650
:100F50000BE000BF4021074800F040F90028F9D01D
:100F60002178044800F0B9F9641C20780028F0D1F9
:100F700010BD00000038014010B500F001F810BDB0
:100F80000CB50020019000903348006840F4803098
:100F90003149086000BF3048006800F4003000901C
:100FA0000198401C0190009818B90198B0F5A06F05
:100FB000F1D12948006800F4003010B10120009000
:100FC00001E0002000900098012843D123480068E8
:100FD00040F01000214908600846006820F0030036
:100FE00008600846006840F0020008601A4840683F
:100FF000194948600846406848600846406840F41F
:10100000806048600846406820F47C1048600846CC
:10101000406840F4E81048600846006840F080707E
:10102000086000BF0C48006800F000700028F9D08C
:101030000948406820F003000749486008464068B6
:1010400040F00200486000BF0348406800F00C0018
:101050000828F9D10CBD0000001002400020024019
:1010600070B502460C460021002500231078302878
:1010700043D15078782802D0507858283DD19078C4
:1010800008B9002070BD022130E0505C10B9236027
:1010900001252DE0505C412802DB505C46280BDD29
:1010A000505C612802DB505C662805DD505C30280E
:1010B00019DB505C392816DC505C302805DB505CAD
:1010C000392802DC505C30380AE0505C412805DBEE
:1010D000505C462802DC505C373801E0505C5738E1
:1010E00000EB031301E0002502E0491C0B29CCD3DF
:1010F00000BF0B2934D3002532E000212AE0505CE8
:1011000010B92360012527E0505C6B2802D0505CA9
:101110004B2804D119B19B02236001251CE0505CCF
:101120006D2802D0505C4D2804D119B11B052360F5
:10113000012511E0505C302809DB505C392806DCC1
:10114000505C303803EB830600EB460301E00025DA
:1011500002E0491C0B29D2D300BF0B2900D3002584
:1011600028468FE710B51348006840F00100114988
:10117000086008464068104908400E494860084623
:1011800000680E4908400B4908600846006820F4D2
:10119000802008600846406820F4FE0048604FF454
:1011A0001F008860FFF7E8FE4FF000600449086008
:1011B00010BD0000001002400000FFF8FFFFF6FE27
:1011C00008ED00E021B1828942F40052828104E0FE
:1011D00082894DF6FF731A408281704702460020D3
:1011E000B1F5007F00D100BF13880B400BB1012087
:1011F00000E00020704700002DE9F04786B005466A
:101200000E460024A24600BFA1460027B08900B1C7
:1012100000BF2F462C8A4CF6FF700440F088044330
:101220002C82AC894EF6F3100440B0883189084313
:10123000718908430443AC81AC8A4FF6FF400440F7
:10124000B0890443AC8201A8FFF7A6FB1F48874280
:1012500002D1DDF810A001E0DDF80CA0A88900F4AF
:10126000004040B10AEBCA0000EB0A1031684900A7
:10127000B0FBF1F807E00AEBCA0000EB0A10316896
:101280008900B0FBF1F86420B8FBF0F004012009FC
:10129000642101FB1089A88900F4004040B132208C
:1012A00000EBC900B0FBF1F000F00700044308E0D8
:1012B000322000EB09106421B0FBF1F000F00F00C8
:1012C00004432C8106B0BDE8F087000000380140DF
:1012D00001468888C0F308007047C1F30802828085
:1012E000704710B503460C46194644F4807200BF9F
:1012F0004900520002F4807000B1491C01F48030B2
:1013000010B141F22100414002F480300028EFD0BA
:1013100088B210BD00BFFEE72DE9F04FADF2344DAD
:10132000064600200290DFF8B0A1059081460390A8
:1013300000BF002700200490B04600BF4FF4801289
:1013400006A90BA8FFF74FFC10B101287ED196E04B
:101350004FF000090698B0F1FF3F01D070B907E0E7
:101360000620FFF7AFFC00200DF2344DBDE8F08FF2
:101370000620FFF7A7FC012004907EE09DF82D00D9
:10138000F9B2884203D01520FFF79CFC74E0002FCF
:101390004BD19DF82F00002840D000250DF12F04DF
:1013A00005E014F8012B28466D1C4C490A5420789E
:1013B00008B1FF2DF5DD002228466D1C47490A546F
:1013C0000025641C05E014F8012B28466D1C07A9B4
:1013D0000A542078202801D00F2DF4DB0022284663
:1013E0006D1C07A90A5402A907A8FFF739FE3C495A
:1013F0000298884208D91820FFF764FC1820FFF7EC
:1014000061FC4FF0FF30AFE73348FFF719F80620D3
:10141000FFF758FC4320FFF755FC2AE00620FFF7B2
:1014200051FC01200490059027E00DF12F0140466A
:10143000069AFEF70DFFB346069880B2C1170190D9
:1014400000EB917082105946504600E020E0FFF713
:1014500011F828B90620FFF735FC0698824408E009
:101460001820FFF72FFC1820FFF72CFC6FF001006D
:101470007AE77F1C0120039000BF00BF1CE018200A
:10148000FFF720FC1820FFF71DFC6FF002006BE750
:101490000398002801DD09F10109B9F1050F07DD05
:1014A0001820FFF70FFC1820FFF70CFC00205BE76B
:1014B0004320FFF707FC00BF00BF049800283FF45B
:1014C0003DAF00BF00BF059800283FF432AF00BF1A
:1014D00000BF029848E70000000001082004002037
:1014E0000100070088B020216846FEF7F6FEFFF7EE
:1014F000FBF9FFF737F941E02148FFF727FD2148C5
:10150000FFF724FD2048FFF721FD2048FFF71EFDCF
:101510001D48FFF71BFD1E48FFF718FD1848FFF791
:1015200015FD1CA0FFF712FD1CA0FFF70FFD28A062
:10153000FFF70CFD6846FFF7A1FC30A16846FEF7F7
:1015400075FE28B92FA16846FEF770FE002813D05B
:101550002EA0FFF7FBFC3DA0FFF7F8FC4BA0FFF728
:10156000F5FC5AA0FFF7F2FC68A0FFF7EFFCFFF7CD
:10157000B1FBFFF76BF901E0FFF768F9BCE700008A
:101580007C180008981700084C170008301800084D
:10159000E41700080D0A0D0A00000000696E70755E
:1015A0007420737472696E6720227570646174654B
:1015B00022206F7220225550444154452220666FEC
:1015C0007220757064617465204941502E0D0A00C7
:1015D000696E707574206F746872652073747269B7
:1015E0006E6720666F72206E6F7420757064617410
:1015F00065204941502E0D0A00000000757064619D
:101600007465000055504441544500000D0A3D3DAD
:101610003D3D3D3D3D3D3D3D3D3D3D3D3D3D3D3DFA
:10162000204D61696E204D656E75203D3D3D3D3D0F
:101630003D3D3D3D3D3D3D3D3D3D3D3D3D3D3D3DDA
:101640003D3D3D3D3D3D3D0D0A0A00002020446FDB
:10165000776E6C6F616420496D61676520546F20FF
:101660007468652053544D33324631307820496ECA
:101670007465726E616C20466C617368202D2D2D2F
:101680002D2D2D2D20310D0A0A000000202055702F
:101690006C6F616420496D6167652046726F6D20D3
:1016A0007468652053544D33324631307820496E8A
:1016B0007465726E616C20466C617368202D2D2DEF
:1016C0002D2D2D2D20320D0A0A00000020204578F6
:1016D000656375746520546865204E657720507287
:1016E0006F6772616D202D2D2D2D2D2D2D2D2D2D02
:1016F0002D2D2D2D2D2D2D2D2D2D2D2D2D2D2D2D1A
:101700002D2D2D2D20330D0A0A0000003D3D3D3DBD
:101710003D3D3D3D3D3D3D3D3D3D3D3D3D3D3D3DF9
:101720003D3D3D3D3D3D3D3D3D3D3D3D3D3D3D3DE9
:101730003D3D3D3D3D3D3D3D3D3D3D3D3D3D3D3DD9
:101740003D3D3D3D3D3D0D0A0A0000000D0A3D2096
:101750002020202020202020202020202020202089
:101760002020202020202020202020202020202079
:101770002020202020202020202020202020202069
:101780002020202020202020202020202020202059
:101790002020203D000000000D0A3D2020202020B8
:1017A00020202020202020202028432920434F5083
:1017B00059524947485420323031322053544D69F0
:1017C00063726F656C656374726F6E6963732020FA
:1017D0002020202020202020202020202020203DEC
:1017E000000000000D0A3D20202020202020202085
:1017F00020202020202020202020202020202020E9
:10180000202020202020202020204279204D4344E9
:10181000204170706C69636174696F6E20546561FA
:101820006D202020202020202020203D00000000CE
:101830000D0A3D202053544D3332463078782049EC
:101840006E2D4170706C69636174696F6E205072A7
:101850006F6772616D6D696E67204170706C69634E
:101860006174696F6E20202856657273696F6E20EF
:10187000312E302E3029203D000000000D0A3D3D64
:101880003D3D3D3D3D3D3D3D3D3D3D3D3D3D3D3D88
:101890003D3D3D3D3D3D3D3D3D3D3D3D3D3D3D3D78
:1018A0003D3D3D3D3D3D3D3D3D3D3D3D3D3D3D3D68
:1018B0003D3D3D3D3D3D3D3D3D3D3D3D3D3D3D3D58
:1018C0003D3D3D3D000000000A0A0D2050726F674B
:1018D00072616D6D696E6720436F6D706C657465C4
:1018E00064205375636365737366756C6C79210A44
:1018F0000D2D2D2D2D2D2D2D2D2D2D2D2D2D2D2D38
:101900002D2D2D2D2D2D2D2D2D2D2D2D2D2D2D2D07
:101910002D0D0A204E616D653A2000003C1900082B
:1019200000000020200000006C0100085C19000885
:10193000200000206029000088010008000000004D
:101940000102030401020304060708090204060851
:0C1950000000000000000000000000008B
:0400000508000131BD
:00000001FF
